:1000000012C0189518951895189518951895189563
:100010000BC1189518951895189518951895189559
:100020001895189518958FE58DBFC0E4E8E34E2E1E
:1000300084E08EBFD4E0F4E05F2EEEEFF3E0A0E6C4
:10004000B0E0A89584B7082E877F84BF88E1992700
:1000500081BD91BD88278D933197E9F76624BD9ABC
:10006000C59A789484B7877F84BF8FE181BD87E08C
:1000700081BD81B5886081BD86E886B980E487B995
:10008000379A80E08FBD84E08EBD89B7846089BFD8
:100090008EB5887F8EBD8D98A0988E9AB89AE0E034
:1000A000F0E0ACE0B1E09EE191D3E2E1F8E0D1D242
:1000B000ACE0B1E0DCD2D5D20027A3E3B0E08C9174
:1000C00080FB0EF401E041E0041709F004C0E0E217
:1000D000F8E0BFD2C6D281E090E0A0E6B0E08D9318
:1000E0009C93A0E6B0E00D911C91023350E01507FF
:1000F00010F009F00DC082B390E4892782BB82E33F
:1001000090E0BBD2A895A0E6B0E06CD208F4E9CFAD
:10011000969800916400013009F083C080E08093DC
:100120006400EEE2F8E095D2ADEEB0E0A0D299D254
:10013000ADEEB0E0E4E3F8E059D381E009F080E00F
:100140008F93ADEEB0E0EAE3F8E050D381E009F040
:1001500080E09F91892B882309F463C007B1007F59
:10016000016007B99ED2A6E6B0E08D939C93A6E607
:10017000B0E08D919C91A6E6B0E08D939C9384E0D5
:100180008EBDE0E4F8E065D2A0E2B4E0E6E6F0E09F
:10019000A3D26BD266D2C09AA89587D00091640092
:1001A000013009F01FC080E080936400ADEEB0E044
:1001B000E6E4F8E01BD381E009F080E08F93ADEE38
:1001C000B0E0ECE4F8E012D381E009F080E09F9128
:1001D000892B882309F406C080E090E0A6E6B0E011
:1001E0008D939C9300916500013009F00DC0E0E40F
:1001F000F8E02FD2A0E2B4E0E6E6F0E06DD235D22E
:1002000030D280E080936500A6E6B0E00D911C91AD
:10021000003050E0150709F0BFCF8EB5887F8EBD46
:10022000C09843D0A89575CF0F921F922F923F92FE
:100230004F925F927F92AF92BF920F931F932F9333
:100240003F934F935F936F937F938F939F93AF935E
:10025000BF93CF93DF93EF93FF938FB78F9380EF8D
:1002600095E89DBD8CBDA6E6B0E0C3D181E080934A
:1002700065008F918FBFFF91EF91DF91CF91BF917B
:10028000AF919F918F917F916F915F914F913F912E
:100290002F911F910F91BF90AF907F905F904F90E3
:1002A0003F902F901F900F901895ADEEB0E08827EB
:1002B0008C93AEECB0E088278C930027A0E3B0E0ED
:1002C0008C9185FB0EF401E041E0041709F088C130
:1002D000969A0027A0E3B0E08C9185FB0EF401E034
:1002E00040E0041709F0F5CF80E090E0A8E6B0E028
:1002F0008D939C93A8E6B0E075D1EF93FF93EAE06D
:10030000F0E085D1FF91EF910027A0E3B0E08C9160
:1003100085FB0EF401E041E0041709F0EBCFA8E6FD
:10032000B0E00D911C910C3454E0150780E010F002
:1003300009F081E08F93A8E6B0E00D911C910433A1
:1003400058E0150781E008F080E09F918923882319
:1003500009F446C1969AAEECB0E088278C9381E010
:1003600090E0A0E6B0E08D939C930027A0E3B0E07E
:100370008C9185FB0EF401E041E0041709F02EC0DA
:1003800080E090E0A8E6B0E08D939C93A8E6B0E012
:1003900029D1EF93FF93EAE0F0E039D1FF91EF919B
:1003A0000027A0E3B0E08C9185FB0EF401E040E073
:1003B000041709F0EBCFA8E6B0E08D919C91A0E680
:1003C000B0E0AD90BC90A8E6B0E0AA0CBB1CAA0DB2
:1003D000BB1D8D939C93A0E6B0E004D1A895A0E648
:1003E000B0E00D911C91083150E0150710F009F0B4
:1003F00001C0BBCF81E090E0A0E6B0E08D939C937C
:10040000A0E6B0E00D911C91083150E0150710F006
:1004100009F08EC0A0E6B0E0AD90BC90A8E6B0E0D8
:10042000AA0CBB1CAA0DBB1D0D911C910E3150E0F6
:10043000150780E010F009F081E08F93A0E6B0E0AE
:10044000AD90BC90A8E6B0E0AA0CBB1CAA0DBB1DE9
:100450000D911C910F3550E0150781E008F080E008
:100460009F918923882309F415C080E090E0A0E6DD
:10047000B0E0AD90BC90A8E6B0E0AA0CBB1CAA0D01
:10048000BB1D8D939C93AEECB0E0BAD0E2E5F8E0F2
:1004900003D149C0A0E6B0E0AD90BC90A8E6B0E0C2
:1004A000AA0CBB1CAA0DBB1D0D911C91083750E076
:1004B000150780E010F009F081E08F93A0E6B0E02E
:1004C000AD90BC90A8E6B0E0AA0CBB1CAA0DBB1D69
:1004D0000D911C910C3D50E0150781E008F080E083
:1004E0009F918923882309F415C081E090E0A0E65C
:1004F000B0E0AD90BC90A8E6B0E0AA0CBB1CAA0D81
:10050000BB1D8D939C93AEECB0E07AD0E4E5F8E0AF
:10051000C3D009C0AEECB0E088278C93ADEEB0E05C
:1005200088278C930895A0E6B0E05CD008F468CFEB
:10053000AEECB0E055D1EA2FFB2F3597F0400FEF2E
:10054000ADEEB0E02AD1EEECF0E004E1AEECB0E0CC
:1005500024D10027A3E3B0E08C9180FB0EF401E0EE
:1005600041E0041709F032C0EEECF0E0ACE0B1E09D
:100570000FD1E0E0F0E0AEECB0E07BE71CD18AE028
:1005800090E07BD0E6E5F8E064D06BD0ECE5F8E0F5
:1005900060D0AEECB0E06BD0E0E6F8E05AD0ADEE63
:1005A000B0E065D05ED0969A84E690E066D0A895DB
:1005B0008AE090E062D00027A3E3B0E08C9180FB5A
:1005C0000EF401E040E0041709F0F1CFEEECF0E0AA
:1005D000ACE0B1E00DD109F003C081E0809364008C
:1005E00096980895ED91FC91EF5FFF4FFC93EE9389
:1005F0000895ED91FC91E150F040FC93EE93089545
:100600008F938D918823E9F711978F9108953197F2
:10061000F1F70895689462F80895E89462F80895EF
:100620008F939F938BE890E00197F1F79F918F91C3
:10063000089580952AE090E0089410F4C59802C0CF
:10064000C59A0000EDDFECDF969587952A95A9F70E
:100650000895C895802D882319F0EBDF3196F9CFE6
:1006600008958DE0E6DF8AE0E4CFA0E2B4E08D916A
:10067000882311F0DEDFFBCF0895EF93FF93EE2781
:10068000E82BE92B31F0EDECFAE03197F1F7019727
:10069000D1F7FF91EF9108950DD00D920020E1F771
:1006A0000895369A3699FECF369A3699FECF84B1A0
:1006B00095B10895C895319600200895000F111F37
:1006C000221F331F089500951095209530950F5FD8
:1006D0001F4F2F4F3F4F0895019110810EC0019180
:1006E0001191219130810BC00191108117FF05C03C
:1006F0003FEF2FEF04C0008111272227332737FF58
:1007000003C0E1DF8DE28D93CF93DF93CF92DF9231
:10071000EF92AA24BB24CC24DD24EE2440E2CAE0DC
:10072000DD2755E093E38881890F87FD9F7083FD66
:10073000907F891B89935A95A9F7C0DFAA1CBB1C1F
:10074000CC1CDD1CEE1C4A9551F7E894EFE0FF2726
:1007500082910ED0EB30E0F71EF068948A2D0CD019
:1007600088278D93EF90DF90CF90DF91CF91089500
:10077000982F829501D0892F8F70805D26F080336D
:1007800009F4089568948D93089588278D930895AA
:1007900081918D938823E1F7089581918D930A9536
:1007A00019F08823D1F70895F0CFE199FECFEEBB81
:1007B000FFBB31960895F9DF8D917B3729F48DBB0E
:1007C000E29AE19A8823B9F777270895EEDFE09A55
:1007D0008DB38D93882319F09A95C1F79D93089551
:1007E0008FEF83959D919923E1F70895689401C057
:1007F000E894AF93BF938D9116F0919102C05ADFA8
:10080000902D891718F011F48823A9F7BF91AF91A3
:10081000089553617665204944206973203A0000A9
:100820006B6579206C6561726E206F6E0000436F9E
:1008300064653D0030303031000030313030000030
:1008400054696D653D00313030300000303031305A
:1008500000003000310053617665640049443D007A
:080860002020446174613D0099
:00000001FF
