:1000000012C0189518951895189518951895189563
:100010001895189518951895189518951895189578
:100020001895189518958FE58DBFC0E4E8E34E2E1E
:1000300084E08EBFD4E0F4E05F2EEEEFF3E0A0E6C4
:10004000B0E0A89584B7082E877F84BF88E1992700
:1000500081BD91BD88278D933197E9F76624BD9ABC
:10006000C59A789484B7877F84BF8FE181BD87E08C
:1000700081BD81B5886081BD86E886B980E487B995
:10008000379A8D98A0988E9AE0E0F0E0A9E0B1E070
:100090009EE1A9D38D9881B5886081BDA0E2B4E0CE
:1000A000E0E6F0E026D3F3D2ECE2F8E0E4D2EBD2E3
:1000B0000027A3E3B0E08C9180FB0EF401E041E067
:1000C000041709F0A2C081E090E0A0E6B0E08D93B3
:1000D0009C93A0E6B0E00D911C91043551E015070A
:1000E00010F009F014C080E090E0A0E6B0E0AD9020
:1000F000BC90A5E6B0E0AA0CBB1CAA0DBB1D8D935D
:100100009C93A895A0E6B0E086D208F4E2CF80E008
:1001100090E0A0E6B0E08D939C93A0E6B0E07BD2A7
:10012000A0E6B0E0AD90BC90A6E2B1E0AA0CBB1C8A
:10013000AA0DBB1D70D2EF93FF93EAE0F0E079D2F5
:10014000FF91EF910027A0E3B0E08C9185FB0EF4C6
:1001500001E040E0041709F0E3CFA0E6B0E05BD295
:10016000A0E6B0E0AD90BC90A6E2B1E0AA0CBB1C4A
:10017000AA0DBB1D50D2EF93FF93EAE0F0E059D2F5
:10018000FF91EF910027A0E3B0E08C9185FB0EF486
:1001900001E041E0041709F0E3CFA895A0E6B0E044
:1001A0000D911C91043551E0150709F0B6CF81E09F
:1001B00090E0A0E6B0E08D939C93A0E6B0E00D91B6
:1001C0001C91043551E0150710F009F01EC0A0E2A3
:1001D000B4E0E0E6F0E08DD25AD2E0E4F8E04BD2B1
:1001E000A0E2B4E0E0E6F0E0A190B080E6E2F1E069
:1001F000AA0CBB1CEA0DFB1D7CD249D244D2A895A7
:10020000A0E6B0E008D208F4D8CF8CE291E047D263
:10021000A89582B390E4892782BB4ACFE4E4F8E052
:100220002AD231D2E6E5F8E026D2A9E0B1E031D217
:100230002AD20027A3E3B0E08C9180FB0EF401E00A
:1002400041E0041709F004C0E4E6F8E014D21BD240
:1002500081E090E0A0E6B0E08D939C93A0E6B0E052
:100260000D911C910A3050E0150710F009F00DC0F7
:1002700082B390E4892782BB82E390E010D2A895F4
:10028000A0E6B0E0C8D108F4E9CF969800916400E8
:10029000013009F006C080E08093640084E690E0BD
:1002A000FED102D0A895F2CFAAEEB0E088278C93B9
:1002B000ABECB0E088278C930027A0E3B0E08C91F2
:1002C00085FB0EF401E041E0041709F0A2C100270C
:1002D000A0E3B0E08C9185FB0EF401E040E0041750
:1002E00009F0F5CF80E090E0A5E6B0E08D939C9317
:1002F000A5E6B0E090D1EF93FF93EAE0F0E099D16A
:10030000FF91EF910027A0E3B0E08C9185FB0EF404
:1003100001E041E0041709F0EBCFA5E6B0E00D9154
:100320001C910E3056E0150780E010F009F081E0D6
:100330008F93A5E6B0E00D911C91043358E01507AA
:1003400081E008F080E09F918923882309F461C14E
:10035000969AABECB0E088278C9381E090E0A0E621
:10036000B0E08D939C930027A0E3B0E08C9185FBD7
:100370000EF401E041E0041709F02EC080E090E0A7
:10038000A5E6B0E08D939C93A5E6B0E044D1EF9351
:10039000FF93EAE0F0E04DD1FF91EF910027A0E359
:1003A000B0E08C9185FB0EF401E040E0041709F009
:1003B000EBCFA5E6B0E08D919C91A0E6B0E0AD90CA
:1003C000BC90A5E6B0E0AA0CBB1CAA0DBB1D8D938A
:1003D0009C93A0E6B0E01FD1A895A0E6B0E00D91F7
:1003E0001C91083150E0150710F009F001C0BBCF97
:1003F00081E090E0A0E6B0E08D939C93A0E6B0E0B1
:100400000D911C91083150E0150710F009F08EC0D5
:10041000A0E6B0E0AD90BC90A5E6B0E0AA0CBB1C95
:10042000AA0DBB1D0D911C910D3250E0150780E007
:1004300010F009F081E08F93A0E6B0E0AD90BC90A1
:10044000A5E6B0E0AA0CBB1CAA0DBB1D0D911C912A
:100450000F3550E0150781E008F080E09F91892377
:10046000882309F415C080E090E0A0E6B0E0AD90EC
:10047000BC90A5E6B0E0AA0CBB1CAA0DBB1D8D93D9
:100480009C93ABECB0E0CED0E2E7F8E017D149C0E6
:10049000A0E6B0E0AD90BC90A5E6B0E0AA0CBB1C15
:1004A000AA0DBB1D0D911C910C3850E0150780E082
:1004B00010F009F081E08F93A0E6B0E0AD90BC9021
:1004C000A5E6B0E0AA0CBB1CAA0DBB1D0D911C91AA
:1004D0000C3D50E0150781E008F080E09F918923F2
:1004E000882309F415C081E090E0A0E6B0E0AD906B
:1004F000BC90A5E6B0E0AA0CBB1CAA0DBB1D8D9359
:100500009C93ABECB0E08ED0E4E7F8E0D7D009C024
:10051000ABECB0E088278C93AAEEB0E088278C93F0
:100520000895A0E6B0E077D008F468CFABECB0E077
:1005300064D1EA2FFB2F3597F0400FEFAAEEB0E021
:1005400039D1EBECF0E004E1ABECB0E033D1E6E71D
:10055000F8E091D0ABECB0E09CD0EAE7F8E08BD0CB
:10056000AAEEB0E096D0E2E8F8E085D0A3E3B0E0F0
:100570008C9180FBA0E2B4E0AAD08D9388278C9365
:1005800086D081D00027A3E3B0E08C9180FB0EF4ED
:1005900001E041E0041709F032C0EBECF0E0A9E023
:1005A000B1E003D1E0E0F0E0ABECB0E07BE710D1EC
:1005B0008AE090E074D0E6E8F8E05DD064D0E6E749
:1005C000F8E059D0ABECB0E064D0EAE7F8E053D003
:1005D000AAEEB0E05ED057D0969A84E690E05FD065
:1005E000A8958AE090E05BD00027A3E3B0E08C916F
:1005F00080FB0EF401E040E0041709F0F1CFEBECD2
:10060000F0E0A9E0B1E001D109F003C081E08093FE
:10061000640096980895ED91FC91EF5FFF4FFC9375
:10062000EE9308958F938D918823E9F711978F9119
:1006300008953197F1F70895689462F80895E89461
:1006400062F808958F939F938BE890E00197F1F7FC
:100650009F918F91089580952AE090E0089410F47E
:10066000C59802C0C59A0000EDDFECDF969587952E
:100670002A95A9F70895C895802D882319F0EBDFF6
:100680003196F9CF08958DE0E6DF8AE0E4CFA0E26D
:10069000B4E08D91882311F0DEDFFBCF0895EF9356
:1006A000FF93EE27E82BE92B31F0EDECFAE03197E0
:1006B000F1F70197D1F7FF91EF91089504D00D92D2
:1006C0000020E1F70895C89531960020089580E351
:1006D0000EF483950895000F111F221F331F0895F4
:1006E00000951095209530950F5F1F4F2F4F3F4F6E
:1006F0000895019110810EC00191119121913081D5
:100700000BC00191108117FF05C03FEF2FEF04C010
:10071000008111272227332737FF03C0E1DF8DE255
:100720008D93CF93DF93CF92DF92EF92AA24BB24D5
:10073000CC24DD24EE2440E2CAE0DD2755E093E33B
:100740008881890F87FD9F7083FD907F891B899326
:100750005A95A9F7C0DFAA1CBB1CCC1CDD1CEE1CE3
:100760004A9551F7E894EFE0FF2782910ED0EB30E5
:10077000E0F71EF068948A2D0CD088278D93EF90B7
:10078000DF90CF90DF91CF910895982F829501D07F
:10079000892F8F70805D26F0803309F40895689466
:1007A0008D93089588278D93089581918D93882343
:1007B000E1F7089581918D930A9519F08823D1F777
:1007C0000895F0CFE199FECFEEBBFFBB31960895BF
:1007D000F9DF8D917B3729F48DBBE29AE19A88236A
:1007E000B9F777270895EEDFE09A8DB38D938823CC
:1007F00019F09A95C1F79D9308958FEF83959D9178
:100800009923E1F70895689401C0E894AF93BF93EA
:100810008D9116F0919102C056DF902D891718F036
:1008200011F48823A9F7BF91AF91089553616C61CA
:100830006D20696E6A61206176616C657368650020
:10084000292000005261642073686F64206B65206A
:1008500021212121000053617665204944206973DC
:10086000203A00006B6579206C6561726E206F6EB6
:1008700000003000310049443D0020204461746193
:0C0880003D0020202000536176656400DC
:00000001FF
